{
  "transactions": [
    {
      "hash": "0x63b85e2ea64848d594519f3e6fdbe2d359eb8d21425457cb654d3fdaab6576ac",
      "transactionType": "CREATE",
      "contractName": "ERC20",
      "contractAddress": "0xea5bae90d9a64f8386821a88651164cb037a918f",
      "function": null,
      "arguments": [
        "MyToken",
        "SYM",
        "18"
      ],
      "transaction": {
        "from": "0x2969d871cd45bc9624e86264951b5b3d0b345a34",
        "gas": "0x12f63d",
        "value": "0x0",
        "input": "0x60a06040523480156200001157600080fd5b506040516200154338038062001543833981810160405281019062000037919062000243565b826000908162000048919062000528565b5081600190816200005a919062000528565b508060ff1660808160ff16815250505050506200060f565b6000604051905090565b600080fd5b600080fd5b600080fd5b600080fd5b6000601f19601f8301169050919050565b7f4e487b7100000000000000000000000000000000000000000000000000000000600052604160045260246000fd5b620000db8262000090565b810181811067ffffffffffffffff82111715620000fd57620000fc620000a1565b5b80604052505050565b60006200011262000072565b9050620001208282620000d0565b919050565b600067ffffffffffffffff821115620001435762000142620000a1565b5b6200014e8262000090565b9050602081019050919050565b60005b838110156200017b5780820151818401526020810190506200015e565b60008484015250505050565b60006200019e620001988462000125565b62000106565b905082815260208101848484011115620001bd57620001bc6200008b565b5b620001ca8482856200015b565b509392505050565b600082601f830112620001ea57620001e962000086565b5b8151620001fc84826020860162000187565b91505092915050565b600060ff82169050919050565b6200021d8162000205565b81146200022957600080fd5b50565b6000815190506200023d8162000212565b92915050565b6000806000606084860312156200025f576200025e6200007c565b5b600084015167ffffffffffffffff81111562000280576200027f62000081565b5b6200028e86828701620001d2565b935050602084015167ffffffffffffffff811115620002b257620002b162000081565b5b620002c086828701620001d2565b9250506040620002d3868287016200022c565b9150509250925092565b600081519050919050565b7f4e487b7100000000000000000000000000000000000000000000000000000000600052602260045260246000fd5b600060028204905060018216806200033057607f821691505b602082108103620003465762000345620002e8565b5b50919050565b60008190508160005260206000209050919050565b60006020601f8301049050919050565b600082821b905092915050565b600060088302620003b07fffffffffffffffffffffffffffffffffffffffffffffffffffffffffffffffff8262000371565b620003bc868362000371565b95508019841693508086168417925050509392505050565b6000819050919050565b6000819050919050565b60006200040962000403620003fd84620003d4565b620003de565b620003d4565b9050919050565b6000819050919050565b6200042583620003e8565b6200043d620004348262000410565b8484546200037e565b825550505050565b600090565b6200045462000445565b620004618184846200041a565b505050565b5b8181101562000489576200047d6000826200044a565b60018101905062000467565b5050565b601f821115620004d857620004a2816200034c565b620004ad8462000361565b81016020851015620004bd578190505b620004d5620004cc8562000361565b83018262000466565b50505b505050565b600082821c905092915050565b6000620004fd60001984600802620004dd565b1980831691505092915050565b6000620005188383620004ea565b9150826002028217905092915050565b6200053382620002dd565b67ffffffffffffffff8111156200054f576200054e620000a1565b5b6200055b825462000317565b620005688282856200048d565b600060209050601f831160018114620005a057600084156200058b578287015190505b6200059785826200050a565b86555062000607565b601f198416620005b0866200034c565b60005b82811015620005da57848901518255600182019150602085019450602081019050620005b3565b86831015620005fa5784890151620005f6601f891682620004ea565b8355505b6001600288020188555050505b505050505050565b608051610f186200062b60003960006106900152610f186000f3fe6080604052600436106100915760003560e01c8063313ce56711610059578063313ce5671461018457806370a08231146101af57806395d89b41146101ec578063a9059cbb14610217578063dd62ed3e1461025457610091565b806306fdde0314610096578063095ea7b3146100c15780631249c58b146100f157806318160ddd1461011c57806323b872dd14610147575b600080fd5b3480156100a257600080fd5b506100ab610291565b6040516100b89190610a9b565b60405180910390f35b6100db60048036038101906100d69190610b56565b61031f565b6040516100e89190610bb1565b60405180910390f35b3480156100fd57600080fd5b50610106610423565b6040516101139190610bb1565b60405180910390f35b34801561012857600080fd5b5061013161043f565b60405161013e9190610bdb565b60405180910390f35b34801561015357600080fd5b5061016e60048036038101906101699190610bf6565b610445565b60405161017b9190610bb1565b60405180910390f35b34801561019057600080fd5b5061019961068e565b6040516101a69190610c65565b60405180910390f35b3480156101bb57600080fd5b506101d660048036038101906101d19190610c80565b6106b2565b6040516101e39190610bdb565b60405180910390f35b3480156101f857600080fd5b506102016106ca565b60405161020e9190610a9b565b60405180910390f35b34801561022357600080fd5b5061023e60048036038101906102399190610b56565b610758565b60405161024b9190610bb1565b60405180910390f35b34801561026057600080fd5b5061027b60048036038101906102769190610cad565b61076d565b6040516102889190610bdb565b60405180910390f35b6000805461029e90610d1c565b80601f01602080910402602001604051908101604052809291908181526020018280546102ca90610d1c565b80156103175780601f106102ec57610100808354040283529160200191610317565b820191906000526020600020905b8154815290600101906020018083116102fa57829003601f168201915b505050505081565b600081600460003373ffffffffffffffffffffffffffffffffffffffff1673ffffffffffffffffffffffffffffffffffffffff16815260200190815260200160002060008573ffffffffffffffffffffffffffffffffffffffff1673ffffffffffffffffffffffffffffffffffffffff16815260200190815260200160002060008282546103ad9190610d7c565b925050819055508273ffffffffffffffffffffffffffffffffffffffff163373ffffffffffffffffffffffffffffffffffffffff167f8c5be1e5ebec7d5bd14f71427d1e84f3dd0314c0f7b2291e5b200ac8c7c3b925846040516104119190610bdb565b60405180910390a36001905092915050565b60006104383368056bc75e2d63100000610792565b6001905090565b60025481565b600081600460008673ffffffffffffffffffffffffffffffffffffffff1673ffffffffffffffffffffffffffffffffffffffff16815260200190815260200160002060003373ffffffffffffffffffffffffffffffffffffffff1673ffffffffffffffffffffffffffffffffffffffff168152602001908152602001600020541015610506576040517f08c379a00000000000000000000000000000000000000000000000000000000081526004016104fd90610dfc565b60405180910390fd5b81600460008673ffffffffffffffffffffffffffffffffffffffff1673ffffffffffffffffffffffffffffffffffffffff16815260200190815260200160002060003373ffffffffffffffffffffffffffffffffffffffff1673ffffffffffffffffffffffffffffffffffffffff16815260200190815260200160002060008282546105929190610e1c565b925050819055503373ffffffffffffffffffffffffffffffffffffffff168473ffffffffffffffffffffffffffffffffffffffff167f8c5be1e5ebec7d5bd14f71427d1e84f3dd0314c0f7b2291e5b200ac8c7c3b925600460008873ffffffffffffffffffffffffffffffffffffffff1673ffffffffffffffffffffffffffffffffffffffff16815260200190815260200160002060003373ffffffffffffffffffffffffffffffffffffffff1673ffffffffffffffffffffffffffffffffffffffff168152602001908152602001600020546040516106729190610bdb565b60405180910390a361068584848461086b565b90509392505050565b7f000000000000000000000000000000000000000000000000000000000000000081565b60036020528060005260406000206000915090505481565b600180546106d790610d1c565b80601f016020809104026020016040519081016040528092919081815260200182805461070390610d1c565b80156107505780601f1061072557610100808354040283529160200191610750565b820191906000526020600020905b81548152906001019060200180831161073357829003601f168201915b505050505081565b600061076533848461086b565b905092915050565b6004602052816000526040600020602052806000526040600020600091509150505481565b80600360008473ffffffffffffffffffffffffffffffffffffffff1673ffffffffffffffffffffffffffffffffffffffff16815260200190815260200160002060008282546107e19190610d7c565b9250508190555080600260008282546107fa9190610d7c565b925050819055508173ffffffffffffffffffffffffffffffffffffffff16600073ffffffffffffffffffffffffffffffffffffffff167fddf252ad1be2c89b69c2b068fc378daa952ba7f163c4a11628f55a4df523b3ef8360405161085f9190610bdb565b60405180910390a35050565b600081600360008673ffffffffffffffffffffffffffffffffffffffff1673ffffffffffffffffffffffffffffffffffffffff1681526020019081526020016000205410156108ef576040517f08c379a00000000000000000000000000000000000000000000000000000000081526004016108e690610ec2565b60405180910390fd5b8273ffffffffffffffffffffffffffffffffffffffff168473ffffffffffffffffffffffffffffffffffffffff167fddf252ad1be2c89b69c2b068fc378daa952ba7f163c4a11628f55a4df523b3ef8460405161094c9190610bdb565b60405180910390a381600360008673ffffffffffffffffffffffffffffffffffffffff1673ffffffffffffffffffffffffffffffffffffffff16815260200190815260200160002060008282546109a39190610e1c565b9250508190555081600360008573ffffffffffffffffffffffffffffffffffffffff1673ffffffffffffffffffffffffffffffffffffffff16815260200190815260200160002060008282546109f99190610d7c565b92505081905550600190509392505050565b600081519050919050565b600082825260208201905092915050565b60005b83811015610a45578082015181840152602081019050610a2a565b60008484015250505050565b6000601f19601f8301169050919050565b6000610a6d82610a0b565b610a778185610a16565b9350610a87818560208601610a27565b610a9081610a51565b840191505092915050565b60006020820190508181036000830152610ab58184610a62565b905092915050565b600080fd5b600073ffffffffffffffffffffffffffffffffffffffff82169050919050565b6000610aed82610ac2565b9050919050565b610afd81610ae2565b8114610b0857600080fd5b50565b600081359050610b1a81610af4565b92915050565b6000819050919050565b610b3381610b20565b8114610b3e57600080fd5b50565b600081359050610b5081610b2a565b92915050565b60008060408385031215610b6d57610b6c610abd565b5b6000610b7b85828601610b0b565b9250506020610b8c85828601610b41565b9150509250929050565b60008115159050919050565b610bab81610b96565b82525050565b6000602082019050610bc66000830184610ba2565b92915050565b610bd581610b20565b82525050565b6000602082019050610bf06000830184610bcc565b92915050565b600080600060608486031215610c0f57610c0e610abd565b5b6000610c1d86828701610b0b565b9350506020610c2e86828701610b0b565b9250506040610c3f86828701610b41565b9150509250925092565b600060ff82169050919050565b610c5f81610c49565b82525050565b6000602082019050610c7a6000830184610c56565b92915050565b600060208284031215610c9657610c95610abd565b5b6000610ca484828501610b0b565b91505092915050565b60008060408385031215610cc457610cc3610abd565b5b6000610cd285828601610b0b565b9250506020610ce385828601610b0b565b9150509250929050565b7f4e487b7100000000000000000000000000000000000000000000000000000000600052602260045260246000fd5b60006002820490506001821680610d3457607f821691505b602082108103610d4757610d46610ced565b5b50919050565b7f4e487b7100000000000000000000000000000000000000000000000000000000600052601160045260246000fd5b6000610d8782610b20565b9150610d9283610b20565b9250828201905080821115610daa57610da9610d4d565b5b92915050565b7f45524332303a20496e73756666696369656e7420616c6c6f77616e6365000000600082015250565b6000610de6601d83610a16565b9150610df182610db0565b602082019050919050565b60006020820190508181036000830152610e1581610dd9565b9050919050565b6000610e2782610b20565b9150610e3283610b20565b9250828203905081811115610e4a57610e49610d4d565b5b92915050565b7f45524332303a20496e73756666696369656e742073656e6465722062616c616e60008201527f6365000000000000000000000000000000000000000000000000000000000000602082015250565b6000610eac602283610a16565b9150610eb782610e50565b604082019050919050565b60006020820190508181036000830152610edb81610e9f565b905091905056fea264697066735822122021d427fa6d663f82dd075cbed01c3d09a1667b5211bc624b97c6c091a2d6c36664736f6c63430008130033000000000000000000000000000000000000000000000000000000000000006000000000000000000000000000000000000000000000000000000000000000a0000000000000000000000000000000000000000000000000000000000000001200000000000000000000000000000000000000000000000000000000000000074d79546f6b656e00000000000000000000000000000000000000000000000000000000000000000000000000000000000000000000000000000000000000000353594d0000000000000000000000000000000000000000000000000000000000",
        "nonce": "0x21",
        "chainId": "0xaa36a7"
      },
      "additionalContracts": [],
      "isFixedGasLimit": false
    },
    {
      "hash": "0x70fbad61436b9d6af795e1f69668151f2c1a5f86c7eee9380b7658039ba6b357",
      "transactionType": "CALL",
      "contractName": "ERC20",
      "contractAddress": "0xea5bae90d9a64f8386821a88651164cb037a918f",
      "function": "mint()",
      "arguments": [],
      "transaction": {
        "from": "0x2969d871cd45bc9624e86264951b5b3d0b345a34",
        "to": "0xea5bae90d9a64f8386821a88651164cb037a918f",
        "gas": "0x16fbe",
        "value": "0x0",
        "input": "0x1249c58b",
        "nonce": "0x22",
        "chainId": "0xaa36a7"
      },
      "additionalContracts": [],
      "isFixedGasLimit": false
    },
    {
      "hash": "0xe66d6da98d00780c3b8bf089551151f196acbb7bcf4ace4f80896771c1ea1ab6",
      "transactionType": "CALL",
      "contractName": "ERC20",
      "contractAddress": "0xea5bae90d9a64f8386821a88651164cb037a918f",
      "function": "transfer(address,uint256)",
      "arguments": [
        "0xf39Fd6e51aad88F6F4ce6aB8827279cffFb92266",
        "25000000000000000000"
      ],
      "transaction": {
        "from": "0x2969d871cd45bc9624e86264951b5b3d0b345a34",
        "to": "0xea5bae90d9a64f8386821a88651164cb037a918f",
        "gas": "0x11b1b",
        "value": "0x0",
        "input": "0xa9059cbb000000000000000000000000f39fd6e51aad88f6f4ce6ab8827279cfffb922660000000000000000000000000000000000000000000000015af1d78b58c40000",
        "nonce": "0x23",
        "chainId": "0xaa36a7"
      },
      "additionalContracts": [],
      "isFixedGasLimit": false
    },
    {
      "hash": "0x5d375cbce1b20b5546531d5fe146a2a94b0d2af9705a6ca02701244643f9ff7d",
      "transactionType": "CALL",
      "contractName": "ERC20",
      "contractAddress": "0xea5bae90d9a64f8386821a88651164cb037a918f",
      "function": "transfer(address,uint256)",
      "arguments": [
        "0x70997970C51812dc3A010C7d01b50e0d17dc79C8",
        "25000000000000000000"
      ],
      "transaction": {
        "from": "0x2969d871cd45bc9624e86264951b5b3d0b345a34",
        "to": "0xea5bae90d9a64f8386821a88651164cb037a918f",
        "gas": "0x11b1b",
        "value": "0x0",
        "input": "0xa9059cbb00000000000000000000000070997970c51812dc3a010c7d01b50e0d17dc79c80000000000000000000000000000000000000000000000015af1d78b58c40000",
        "nonce": "0x24",
        "chainId": "0xaa36a7"
      },
      "additionalContracts": [],
      "isFixedGasLimit": false
    },
    {
      "hash": "0xa6f929ba0ce793d24ccd714f2b59ff7f920cc20e5c31a5c620853ba002594bec",
      "transactionType": "CALL",
      "contractName": "ERC20",
      "contractAddress": "0xea5bae90d9a64f8386821a88651164cb037a918f",
      "function": "transfer(address,uint256)",
      "arguments": [
        "0x3C44CdDdB6a900fa2b585dd299e03d12FA4293BC",
        "25000000000000000000"
      ],
      "transaction": {
        "from": "0x2969d871cd45bc9624e86264951b5b3d0b345a34",
        "to": "0xea5bae90d9a64f8386821a88651164cb037a918f",
        "gas": "0x12bb0",
        "value": "0x0",
        "input": "0xa9059cbb0000000000000000000000003c44cdddb6a900fa2b585dd299e03d12fa4293bc0000000000000000000000000000000000000000000000015af1d78b58c40000",
        "nonce": "0x25",
        "chainId": "0xaa36a7"
      },
      "additionalContracts": [],
      "isFixedGasLimit": false
    },
    {
      "hash": "0x0639bcd14e9e9ccda6f23d4542094e4cb32a9916247e7cf1128ae513d9567724",
      "transactionType": "CALL",
      "contractName": "ERC20",
      "contractAddress": "0xea5bae90d9a64f8386821a88651164cb037a918f",
      "function": "transfer(address,uint256)",
      "arguments": [
        "0x90F79bf6EB2c4f870365E785982E1f101E93b906",
        "25000000000000000000"
      ],
      "transaction": {
        "from": "0x2969d871cd45bc9624e86264951b5b3d0b345a34",
        "to": "0xea5bae90d9a64f8386821a88651164cb037a918f",
        "gas": "0x10135",
        "value": "0x0",
        "input": "0xa9059cbb00000000000000000000000090f79bf6eb2c4f870365e785982e1f101e93b9060000000000000000000000000000000000000000000000015af1d78b58c40000",
        "nonce": "0x26",
        "chainId": "0xaa36a7"
      },
      "additionalContracts": [],
      "isFixedGasLimit": false
    }
  ],
  "receipts": [
    {
      "status": "0x1",
      "cumulativeGasUsed": "0x704c76",
      "logs": [],
      "logsBloom": "0x00000000000000000000000000000000000000000000000000000000000000000000000000000000000000000000000000000000000000000000000000000000000000000000000000000000000000000000000000000000000000000000000000000000000000000000000000000000000000000000000000000000000000000000000000000000000000000000000000000000000000000000000000000000000000000000000000000000000000000000000000000000000000000000000000000000000000000000000000000000000000000000000000000000000000000000000000000000000000000000000000000000000000000000000000000000",
      "type": "0x2",
      "transactionHash": "0x63b85e2ea64848d594519f3e6fdbe2d359eb8d21425457cb654d3fdaab6576ac",
      "transactionIndex": "0x40",
      "blockHash": "0xa555fda15478b62256a86a745a355a3c028b8e5aa895e96e98c3bc5a9bcbb488",
      "blockNumber": "0x798cdd",
      "gasUsed": "0xe9608",
      "effectiveGasPrice": "0x310f03",
      "from": "0x2969d871cd45bc9624e86264951b5b3d0b345a34",
      "to": null,
      "contractAddress": "0xea5bae90d9a64f8386821a88651164cb037a918f"
    },
    {
      "status": "0x1",
      "cumulativeGasUsed": "0x7156b4",
      "logs": [
        {
          "address": "0xea5bae90d9a64f8386821a88651164cb037a918f",
          "topics": [
            "0xddf252ad1be2c89b69c2b068fc378daa952ba7f163c4a11628f55a4df523b3ef",
            "0x0000000000000000000000000000000000000000000000000000000000000000",
            "0x0000000000000000000000002969d871cd45bc9624e86264951b5b3d0b345a34"
          ],
          "data": "0x0000000000000000000000000000000000000000000000056bc75e2d63100000",
          "blockHash": "0xa555fda15478b62256a86a745a355a3c028b8e5aa895e96e98c3bc5a9bcbb488",
          "blockNumber": "0x798cdd",
          "blockTimestamp": "0x67e061c8",
          "transactionHash": "0x70fbad61436b9d6af795e1f69668151f2c1a5f86c7eee9380b7658039ba6b357",
          "transactionIndex": "0x41",
          "logIndex": "0x87",
          "removed": false
        }
      ],
      "logsBloom": "0x00000000000000000000000000000000000000000000000000000000000000000000000000000000000000000000080000000000000000000000000000000000400000000000000000000008000000000000000000000004000000000000000000000000020000000000000000000800000000000000000000000010000000000000000000000000080000000000000000000000000000000000000000000000000000000000000000000000000000000000000000000000000000000000000000000002000000000400000000000000000000000000000000000000000220000000000000000000000000000000000000000000000000000000000000000000",
      "type": "0x2",
      "transactionHash": "0x70fbad61436b9d6af795e1f69668151f2c1a5f86c7eee9380b7658039ba6b357",
      "transactionIndex": "0x41",
      "blockHash": "0xa555fda15478b62256a86a745a355a3c028b8e5aa895e96e98c3bc5a9bcbb488",
      "blockNumber": "0x798cdd",
      "gasUsed": "0x10a3e",
      "effectiveGasPrice": "0x310f03",
      "from": "0x2969d871cd45bc9624e86264951b5b3d0b345a34",
      "to": "0xea5bae90d9a64f8386821a88651164cb037a918f",
      "contractAddress": null
    },
    {
      "status": "0x1",
      "cumulativeGasUsed": "0x7223ab",
      "logs": [
        {
          "address": "0xea5bae90d9a64f8386821a88651164cb037a918f",
          "topics": [
            "0xddf252ad1be2c89b69c2b068fc378daa952ba7f163c4a11628f55a4df523b3ef",
            "0x0000000000000000000000002969d871cd45bc9624e86264951b5b3d0b345a34",
            "0x000000000000000000000000f39fd6e51aad88f6f4ce6ab8827279cfffb92266"
          ],
          "data": "0x0000000000000000000000000000000000000000000000015af1d78b58c40000",
          "blockHash": "0xa555fda15478b62256a86a745a355a3c028b8e5aa895e96e98c3bc5a9bcbb488",
          "blockNumber": "0x798cdd",
          "blockTimestamp": "0x67e061c8",
          "transactionHash": "0xe66d6da98d00780c3b8bf089551151f196acbb7bcf4ace4f80896771c1ea1ab6",
          "transactionIndex": "0x42",
          "logIndex": "0x88",
          "removed": false
        }
      ],
      "logsBloom": "0x00000000000000000000000000000000000000000000000000000000000000000000000000000000000000000000080000000000000000000000000000000000400000000000000000000008000000000000000000000004000000000000000000000000000000000000000100000000000000000000000000000010000000000000000000000000080000000000000000000000000000000000000000000000000000000000000000000000000000000000000000000000000000000000000000000002000000200400000000000000000000002000000000000000000200000000000000000000000000000000000000000000000000000000000000000000",
      "type": "0x2",
      "transactionHash": "0xe66d6da98d00780c3b8bf089551151f196acbb7bcf4ace4f80896771c1ea1ab6",
      "transactionIndex": "0x42",
      "blockHash": "0xa555fda15478b62256a86a745a355a3c028b8e5aa895e96e98c3bc5a9bcbb488",
      "blockNumber": "0x798cdd",
      "gasUsed": "0xccf7",
      "effectiveGasPrice": "0x310f03",
      "from": "0x2969d871cd45bc9624e86264951b5b3d0b345a34",
      "to": "0xea5bae90d9a64f8386821a88651164cb037a918f",
      "contractAddress": null
    },
    {
      "status": "0x1",
      "cumulativeGasUsed": "0x72f0a2",
      "logs": [
        {
          "address": "0xea5bae90d9a64f8386821a88651164cb037a918f",
          "topics": [
            "0xddf252ad1be2c89b69c2b068fc378daa952ba7f163c4a11628f55a4df523b3ef",
            "0x0000000000000000000000002969d871cd45bc9624e86264951b5b3d0b345a34",
            "0x00000000000000000000000070997970c51812dc3a010c7d01b50e0d17dc79c8"
          ],
          "data": "0x0000000000000000000000000000000000000000000000015af1d78b58c40000",
          "blockHash": "0xa555fda15478b62256a86a745a355a3c028b8e5aa895e96e98c3bc5a9bcbb488",
          "blockNumber": "0x798cdd",
          "blockTimestamp": "0x67e061c8",
          "transactionHash": "0x5d375cbce1b20b5546531d5fe146a2a94b0d2af9705a6ca02701244643f9ff7d",
          "transactionIndex": "0x43",
          "logIndex": "0x89",
          "removed": false
        }
      ],
      "logsBloom": "0x00000000000000000002000000000000000000000000000000000000000000000000000000000000000000000000080000000000000000000000000000000000400000000000000000000008000000000000000000000004000000000000000000000800000000000000000000000000000000000000000000000010000000000000000000000000080000000000000000000000000000000000000000000000000000000000000000000000000000000000000000000000000000000000000000000002000000000400000000000000000000000000000000000000000200000000000000000000000000000000000001000000000000000000000000000000",
      "type": "0x2",
      "transactionHash": "0x5d375cbce1b20b5546531d5fe146a2a94b0d2af9705a6ca02701244643f9ff7d",
      "transactionIndex": "0x43",
      "blockHash": "0xa555fda15478b62256a86a745a355a3c028b8e5aa895e96e98c3bc5a9bcbb488",
      "blockNumber": "0x798cdd",
      "gasUsed": "0xccf7",
      "effectiveGasPrice": "0x310f03",
      "from": "0x2969d871cd45bc9624e86264951b5b3d0b345a34",
      "to": "0xea5bae90d9a64f8386821a88651164cb037a918f",
      "contractAddress": null
    },
    {
      "status": "0x1",
      "cumulativeGasUsed": "0x73bd8d",
      "logs": [
        {
          "address": "0xea5bae90d9a64f8386821a88651164cb037a918f",
          "topics": [
            "0xddf252ad1be2c89b69c2b068fc378daa952ba7f163c4a11628f55a4df523b3ef",
            "0x0000000000000000000000002969d871cd45bc9624e86264951b5b3d0b345a34",
            "0x0000000000000000000000003c44cdddb6a900fa2b585dd299e03d12fa4293bc"
          ],
          "data": "0x0000000000000000000000000000000000000000000000015af1d78b58c40000",
          "blockHash": "0xa555fda15478b62256a86a745a355a3c028b8e5aa895e96e98c3bc5a9bcbb488",
          "blockNumber": "0x798cdd",
          "blockTimestamp": "0x67e061c8",
          "transactionHash": "0xa6f929ba0ce793d24ccd714f2b59ff7f920cc20e5c31a5c620853ba002594bec",
          "transactionIndex": "0x44",
          "logIndex": "0x8a",
          "removed": false
        }
      ],
      "logsBloom": "0x00000000000000000000000000000000000000000000000000000000000000000000000000000000000000000000080000000000000000000000000000100000400000000000000000000008000000000000000000000004000000000000000000000000000000000000000000000000000800000000000000000010000000000000000000000000080000000000000000000000000000000000000000000000000000000000200000000000000000000000000000000000000000000000000000000002000000000400000000000000000000000000000000000000000200000000000000000000000000000000000000000000000000000000000000000000",
      "type": "0x2",
      "transactionHash": "0xa6f929ba0ce793d24ccd714f2b59ff7f920cc20e5c31a5c620853ba002594bec",
      "transactionIndex": "0x44",
      "blockHash": "0xa555fda15478b62256a86a745a355a3c028b8e5aa895e96e98c3bc5a9bcbb488",
      "blockNumber": "0x798cdd",
      "gasUsed": "0xcceb",
      "effectiveGasPrice": "0x310f03",
      "from": "0x2969d871cd45bc9624e86264951b5b3d0b345a34",
      "to": "0xea5bae90d9a64f8386821a88651164cb037a918f",
      "contractAddress": null
    },
    {
      "status": "0x1",
      "cumulativeGasUsed": "0x7477c4",
      "logs": [
        {
          "address": "0xea5bae90d9a64f8386821a88651164cb037a918f",
          "topics": [
            "0xddf252ad1be2c89b69c2b068fc378daa952ba7f163c4a11628f55a4df523b3ef",
            "0x0000000000000000000000002969d871cd45bc9624e86264951b5b3d0b345a34",
            "0x00000000000000000000000090f79bf6eb2c4f870365e785982e1f101e93b906"
          ],
          "data": "0x0000000000000000000000000000000000000000000000015af1d78b58c40000",
          "blockHash": "0xa555fda15478b62256a86a745a355a3c028b8e5aa895e96e98c3bc5a9bcbb488",
          "blockNumber": "0x798cdd",
          "blockTimestamp": "0x67e061c8",
          "transactionHash": "0x0639bcd14e9e9ccda6f23d4542094e4cb32a9916247e7cf1128ae513d9567724",
          "transactionIndex": "0x45",
          "logIndex": "0x8b",
          "removed": false
        }
      ],
      "logsBloom": "0x00000000000000000000000000000000000000000000000000000000000000000000000000000000000000000000080000000000000000000000000000000000400000000000000000000008000000000000000000000004000000000000000000000000000000000000000000000000000000000000000000000010000000000000000000000000080000000000000000000000000000000400000000000000000000000000000000000000000000000000000000000000000000000000000000000002000000000400000000000000400000000000000000000000000200000000000000000000000010000000000000000000000000000000000000000000",
      "type": "0x2",
      "transactionHash": "0x0639bcd14e9e9ccda6f23d4542094e4cb32a9916247e7cf1128ae513d9567724",
      "transactionIndex": "0x45",
      "blockHash": "0xa555fda15478b62256a86a745a355a3c028b8e5aa895e96e98c3bc5a9bcbb488",
      "blockNumber": "0x798cdd",
      "gasUsed": "0xba37",
      "effectiveGasPrice": "0x310f03",
      "from": "0x2969d871cd45bc9624e86264951b5b3d0b345a34",
      "to": "0xea5bae90d9a64f8386821a88651164cb037a918f",
      "contractAddress": null
    }
  ],
  "libraries": [],
  "pending": [],
  "returns": {},
  "timestamp": 1742758367,
  "chain": 11155111,
  "commit": "7514d41"
}